{
  "contractName": "Instagram",
  "abi": [
    {
      "inputs": [],
      "stateMutability": "nonpayable",
      "type": "constructor"
    },
    {
      "anonymous": false,
      "inputs": [
        {
          "indexed": false,
          "internalType": "uint256",
          "name": "id",
          "type": "uint256"
        },
        {
          "indexed": false,
          "internalType": "uint256",
          "name": "tipAmount",
          "type": "uint256"
        },
        {
          "indexed": false,
          "internalType": "address",
          "name": "sender",
          "type": "address"
        }
      ],
      "name": "TipImage",
      "type": "event"
    },
    {
      "anonymous": false,
      "inputs": [
        {
          "indexed": false,
          "internalType": "uint256",
          "name": "id",
          "type": "uint256"
        },
        {
          "indexed": false,
          "internalType": "string",
          "name": "hash",
          "type": "string"
        },
        {
          "indexed": false,
          "internalType": "string",
          "name": "description",
          "type": "string"
        },
        {
          "indexed": false,
          "internalType": "uint256",
          "name": "tipAmount",
          "type": "uint256"
        },
        {
          "indexed": false,
          "internalType": "address",
          "name": "author",
          "type": "address"
        }
      ],
      "name": "UploadImage",
      "type": "event"
    },
    {
      "inputs": [],
      "name": "imageCount",
      "outputs": [
        {
          "internalType": "uint256",
          "name": "",
          "type": "uint256"
        }
      ],
      "stateMutability": "view",
      "type": "function",
      "constant": true
    },
    {
      "inputs": [
        {
          "internalType": "uint256",
          "name": "",
          "type": "uint256"
        }
      ],
      "name": "images",
      "outputs": [
        {
          "internalType": "uint256",
          "name": "id",
          "type": "uint256"
        },
        {
          "internalType": "string",
          "name": "hash",
          "type": "string"
        },
        {
          "internalType": "string",
          "name": "description",
          "type": "string"
        },
        {
          "internalType": "uint256",
          "name": "tipAmount",
          "type": "uint256"
        },
        {
          "internalType": "address payable",
          "name": "author",
          "type": "address"
        }
      ],
      "stateMutability": "view",
      "type": "function",
      "constant": true
    },
    {
      "inputs": [],
      "name": "name",
      "outputs": [
        {
          "internalType": "string",
          "name": "",
          "type": "string"
        }
      ],
      "stateMutability": "view",
      "type": "function",
      "constant": true
    },
    {
      "inputs": [],
      "name": "owner",
      "outputs": [
        {
          "internalType": "address",
          "name": "",
          "type": "address"
        }
      ],
      "stateMutability": "view",
      "type": "function",
      "constant": true
    },
    {
      "inputs": [
        {
          "internalType": "string",
          "name": "_hash",
          "type": "string"
        },
        {
          "internalType": "string",
          "name": "_description",
          "type": "string"
        }
      ],
      "name": "uploadImage",
      "outputs": [],
      "stateMutability": "payable",
      "type": "function",
      "payable": true
    },
    {
      "inputs": [
        {
          "internalType": "uint256",
          "name": "_id",
          "type": "uint256"
        }
      ],
      "name": "tipImage",
      "outputs": [],
      "stateMutability": "payable",
      "type": "function",
      "payable": true
    }
  ],
  "bytecode": "0x60806040526040518060400160405280600981526020017f496e7374616772616d00000000000000000000000000000000000000000000008152506000908051906020019062000051929190620000a7565b503480156200005f57600080fd5b5033600160006101000a81548173ffffffffffffffffffffffffffffffffffffffff021916908373ffffffffffffffffffffffffffffffffffffffff160217905550620001bb565b828054620000b59062000186565b90600052602060002090601f016020900481019282620000d9576000855562000125565b82601f10620000f457805160ff191683800117855562000125565b8280016001018555821562000125579182015b828111156200012457825182559160200191906001019062000107565b5b50905062000134919062000138565b5090565b5b808211156200015357600081600090555060010162000139565b5090565b7f4e487b7100000000000000000000000000000000000000000000000000000000600052602260045260246000fd5b600060028204905060018216806200019f57607f821691505b602082108103620001b557620001b462000157565b5b50919050565b6110f980620001cb6000396000f3fe6080604052600436106100555760003560e01c806306fdde031461005a578063092134fe1461008557806384856482146100a15780638da5cb5b146100e257806392053b631461010d578063a91b831414610138575b600080fd5b34801561006657600080fd5b5061006f610154565b60405161007c9190610a48565b60405180910390f35b61009f600480360381019061009a9190610ab4565b6101e2565b005b3480156100ad57600080fd5b506100c860048036038101906100c39190610ab4565b610532565b6040516100d9959493929190610b31565b60405180910390f35b3480156100ee57600080fd5b506100f7610698565b6040516101049190610bb3565b60405180910390f35b34801561011957600080fd5b506101226106be565b60405161012f9190610bce565b60405180910390f35b610152600480360381019061014d9190610d1e565b6106c4565b005b6000805461016190610dc5565b80601f016020809104026020016040519081016040528092919081815260200182805461018d90610dc5565b80156101da5780601f106101af576101008083540402835291602001916101da565b820191906000526020600020905b8154815290600101906020018083116101bd57829003601f168201915b505050505081565b6000811180156101f457506002548111155b610233576040517f08c379a000000000000000000000000000000000000000000000000000000000815260040161022a90610e42565b60405180910390fd5b6000600360008381526020019081526020016000206040518060a00160405290816000820154815260200160018201805461026d90610dc5565b80601f016020809104026020016040519081016040528092919081815260200182805461029990610dc5565b80156102e65780601f106102bb576101008083540402835291602001916102e6565b820191906000526020600020905b8154815290600101906020018083116102c957829003601f168201915b505050505081526020016002820180546102ff90610dc5565b80601f016020809104026020016040519081016040528092919081815260200182805461032b90610dc5565b80156103785780601f1061034d57610100808354040283529160200191610378565b820191906000526020600020905b81548152906001019060200180831161035b57829003601f168201915b50505050508152602001600382015481526020016004820160009054906101000a900473ffffffffffffffffffffffffffffffffffffffff1673ffffffffffffffffffffffffffffffffffffffff1673ffffffffffffffffffffffffffffffffffffffff16815250509050806080015173ffffffffffffffffffffffffffffffffffffffff166108fc349081150290604051600060405180830381858888f1935050505015801561042d573d6000803e3d6000fd5b5034816060018181516104409190610e91565b91508181525050806003600084815260200190815260200160002060008201518160000155602082015181600101908051906020019061048192919061090c565b50604082015181600201908051906020019061049e92919061090c565b506060820151816003015560808201518160040160006101000a81548173ffffffffffffffffffffffffffffffffffffffff021916908373ffffffffffffffffffffffffffffffffffffffff1602179055509050507fd0a106b4cb197b1b789615fde35e9ae7b28068320611bc7ebdee8e54eee1f98382343360405161052693929190610ee7565b60405180910390a15050565b600360205280600052604060002060009150905080600001549080600101805461055b90610dc5565b80601f016020809104026020016040519081016040528092919081815260200182805461058790610dc5565b80156105d45780601f106105a9576101008083540402835291602001916105d4565b820191906000526020600020905b8154815290600101906020018083116105b757829003601f168201915b5050505050908060020180546105e990610dc5565b80601f016020809104026020016040519081016040528092919081815260200182805461061590610dc5565b80156106625780601f1061063757610100808354040283529160200191610662565b820191906000526020600020905b81548152906001019060200180831161064557829003601f168201915b5050505050908060030154908060040160009054906101000a900473ffffffffffffffffffffffffffffffffffffffff16905085565b600160009054906101000a900473ffffffffffffffffffffffffffffffffffffffff1681565b60025481565b6003825111610708576040517f08c379a00000000000000000000000000000000000000000000000000000000081526004016106ff90610f6a565b60405180910390fd5b600381511161074c576040517f08c379a000000000000000000000000000000000000000000000000000000000815260040161074390610fd6565b60405180910390fd5b600073ffffffffffffffffffffffffffffffffffffffff163373ffffffffffffffffffffffffffffffffffffffff16036107bb576040517f08c379a00000000000000000000000000000000000000000000000000000000081526004016107b290611042565b60405180910390fd5b6001600260008282546107ce9190610e91565b9250508190555060006040518060a0016040528060025481526020018481526020018381526020013481526020013373ffffffffffffffffffffffffffffffffffffffff1681525090508060036000600254815260200190815260200160002060008201518160000155602082015181600101908051906020019061085492919061090c565b50604082015181600201908051906020019061087192919061090c565b506060820151816003015560808201518160040160006101000a81548173ffffffffffffffffffffffffffffffffffffffff021916908373ffffffffffffffffffffffffffffffffffffffff1602179055509050507f4b0f8efc6726d9aa586c73ace5ff297994c30ee657e4def06e940316db97ef91600254848434336040516108ff959493929190611062565b60405180910390a1505050565b82805461091890610dc5565b90600052602060002090601f01602090048101928261093a5760008555610981565b82601f1061095357805160ff1916838001178555610981565b82800160010185558215610981579182015b82811115610980578251825591602001919060010190610965565b5b50905061098e9190610992565b5090565b5b808211156109ab576000816000905550600101610993565b5090565b600081519050919050565b600082825260208201905092915050565b60005b838110156109e95780820151818401526020810190506109ce565b838111156109f8576000848401525b50505050565b6000601f19601f8301169050919050565b6000610a1a826109af565b610a2481856109ba565b9350610a348185602086016109cb565b610a3d816109fe565b840191505092915050565b60006020820190508181036000830152610a628184610a0f565b905092915050565b6000604051905090565b600080fd5b600080fd5b6000819050919050565b610a9181610a7e565b8114610a9c57600080fd5b50565b600081359050610aae81610a88565b92915050565b600060208284031215610aca57610ac9610a74565b5b6000610ad884828501610a9f565b91505092915050565b610aea81610a7e565b82525050565b600073ffffffffffffffffffffffffffffffffffffffff82169050919050565b6000610b1b82610af0565b9050919050565b610b2b81610b10565b82525050565b600060a082019050610b466000830188610ae1565b8181036020830152610b588187610a0f565b90508181036040830152610b6c8186610a0f565b9050610b7b6060830185610ae1565b610b886080830184610b22565b9695505050505050565b6000610b9d82610af0565b9050919050565b610bad81610b92565b82525050565b6000602082019050610bc86000830184610ba4565b92915050565b6000602082019050610be36000830184610ae1565b92915050565b600080fd5b600080fd5b7f4e487b7100000000000000000000000000000000000000000000000000000000600052604160045260246000fd5b610c2b826109fe565b810181811067ffffffffffffffff82111715610c4a57610c49610bf3565b5b80604052505050565b6000610c5d610a6a565b9050610c698282610c22565b919050565b600067ffffffffffffffff821115610c8957610c88610bf3565b5b610c92826109fe565b9050602081019050919050565b82818337600083830152505050565b6000610cc1610cbc84610c6e565b610c53565b905082815260208101848484011115610cdd57610cdc610bee565b5b610ce8848285610c9f565b509392505050565b600082601f830112610d0557610d04610be9565b5b8135610d15848260208601610cae565b91505092915050565b60008060408385031215610d3557610d34610a74565b5b600083013567ffffffffffffffff811115610d5357610d52610a79565b5b610d5f85828601610cf0565b925050602083013567ffffffffffffffff811115610d8057610d7f610a79565b5b610d8c85828601610cf0565b9150509250929050565b7f4e487b7100000000000000000000000000000000000000000000000000000000600052602260045260246000fd5b60006002820490506001821680610ddd57607f821691505b602082108103610df057610def610d96565b5b50919050565b7f73686f756c642068617665206120636f72726563742069640000000000000000600082015250565b6000610e2c6018836109ba565b9150610e3782610df6565b602082019050919050565b60006020820190508181036000830152610e5b81610e1f565b9050919050565b7f4e487b7100000000000000000000000000000000000000000000000000000000600052601160045260246000fd5b6000610e9c82610a7e565b9150610ea783610a7e565b9250827fffffffffffffffffffffffffffffffffffffffffffffffffffffffffffffffff03821115610edc57610edb610e62565b5b828201905092915050565b6000606082019050610efc6000830186610ae1565b610f096020830185610ae1565b610f166040830184610ba4565b949350505050565b7f73686f756c642068617665206120686173682073657400000000000000000000600082015250565b6000610f546016836109ba565b9150610f5f82610f1e565b602082019050919050565b60006020820190508181036000830152610f8381610f47565b9050919050565b7f73686f756c6420686176652061206465736372697074696f6e20736574000000600082015250565b6000610fc0601d836109ba565b9150610fcb82610f8a565b602082019050919050565b60006020820190508181036000830152610fef81610fb3565b9050919050565b7f73686f756c64206861766520612076616c696420616464726573730000000000600082015250565b600061102c601b836109ba565b915061103782610ff6565b602082019050919050565b6000602082019050818103600083015261105b8161101f565b9050919050565b600060a0820190506110776000830188610ae1565b81810360208301526110898187610a0f565b9050818103604083015261109d8186610a0f565b90506110ac6060830185610ae1565b6110b96080830184610ba4565b969550505050505056fea2646970667358221220ad590e00ca8b9a9f798a02868871124983e9960242b3ec1fbbbc5b5a4a95cb0264736f6c634300080d0033",
  "immutableReferences": {},
  "source": "// SPDX-License-Identifier: MIT\npragma solidity >=0.4.22 <0.9.0;\n\ncontract Instagram {\n  string public name = \"Instagram\";\n  address public owner;\n  uint public imageCount;\n\n  struct Image {\n    uint id;\n    string hash;\n    string description;\n    uint tipAmount;\n    address payable author;\n  }\n\n  // store images\n  mapping(uint => Image) public images;\n\n  constructor()  {\n    owner = msg.sender;\n  }\n\n  event UploadImage(uint id, string hash, string description, uint tipAmount, address author);\n  event TipImage(uint id, uint tipAmount, address sender);\n\n  function uploadImage(string memory _hash, string memory _description) public payable {\n      require(bytes(_hash).length > 3, 'should have a hash set');\n      require(bytes(_description).length > 3, 'should have a description set');\n      require(msg.sender != address(0x0), \"should have a valid address\");  \n\n      imageCount += 1;\n      Image memory newImage = Image(imageCount, _hash, _description, msg.value, payable(msg.sender));  \n      images[imageCount] = newImage;\n      emit UploadImage(imageCount, _hash, _description, msg.value, msg.sender);\n  }\n\n  function tipImage(uint _id) public payable {\n    require(_id > 0 && _id <= imageCount, 'should have a correct id');\n    // fetch image\n    Image memory image = images[_id];\n    // fetch the author and transfer money\n    image.author.transfer(msg.value);\n    // update tip amount\n    image.tipAmount +=  msg.value;\n    // update image in mapping\n    images[_id]= image;  \n    // emit event\n    emit TipImage(_id, msg.value, msg.sender);\n  }\n}\n",
  "sourcePath": "/Users/danielancuta/Development/blockchain/truffle-react-instagram-app/src/contracts/Instagram.sol",
  "compiler": {
    "name": "solc",
    "version": "0.8.13+commit.abaa5c0e.Emscripten.clang"
  },
  "schemaVersion": "3.4.7",
  "updatedAt": "2022-05-12T13:41:16.415Z",
  "networkType": "ethereum",
  "devdoc": {
    "kind": "dev",
    "methods": {},
    "version": 1
  },
  "userdoc": {
    "kind": "user",
    "methods": {},
    "version": 1
  }
}