{
  "contractName": "Instagram",
  "abi": [
    {
      "inputs": [],
      "stateMutability": "nonpayable",
      "type": "constructor"
    },
    {
      "anonymous": false,
      "inputs": [
        {
          "indexed": false,
          "internalType": "uint256",
          "name": "id",
          "type": "uint256"
        },
        {
          "indexed": false,
          "internalType": "uint256",
          "name": "tipAmount",
          "type": "uint256"
        },
        {
          "indexed": false,
          "internalType": "address",
          "name": "sender",
          "type": "address"
        }
      ],
      "name": "TipImage",
      "type": "event"
    },
    {
      "anonymous": false,
      "inputs": [
        {
          "indexed": false,
          "internalType": "uint256",
          "name": "id",
          "type": "uint256"
        },
        {
          "indexed": false,
          "internalType": "string",
          "name": "hash",
          "type": "string"
        },
        {
          "indexed": false,
          "internalType": "string",
          "name": "description",
          "type": "string"
        },
        {
          "indexed": false,
          "internalType": "uint256",
          "name": "tipAmount",
          "type": "uint256"
        },
        {
          "indexed": false,
          "internalType": "address",
          "name": "author",
          "type": "address"
        }
      ],
      "name": "UploadImage",
      "type": "event"
    },
    {
      "inputs": [],
      "name": "imageCount",
      "outputs": [
        {
          "internalType": "uint256",
          "name": "",
          "type": "uint256"
        }
      ],
      "stateMutability": "view",
      "type": "function",
      "constant": true
    },
    {
      "inputs": [
        {
          "internalType": "uint256",
          "name": "",
          "type": "uint256"
        }
      ],
      "name": "images",
      "outputs": [
        {
          "internalType": "uint256",
          "name": "id",
          "type": "uint256"
        },
        {
          "internalType": "string",
          "name": "hash",
          "type": "string"
        },
        {
          "internalType": "string",
          "name": "description",
          "type": "string"
        },
        {
          "internalType": "uint256",
          "name": "tipAmount",
          "type": "uint256"
        },
        {
          "internalType": "address payable",
          "name": "author",
          "type": "address"
        }
      ],
      "stateMutability": "view",
      "type": "function",
      "constant": true
    },
    {
      "inputs": [],
      "name": "name",
      "outputs": [
        {
          "internalType": "string",
          "name": "",
          "type": "string"
        }
      ],
      "stateMutability": "view",
      "type": "function",
      "constant": true
    },
    {
      "inputs": [],
      "name": "owner",
      "outputs": [
        {
          "internalType": "address",
          "name": "",
          "type": "address"
        }
      ],
      "stateMutability": "view",
      "type": "function",
      "constant": true
    },
    {
      "inputs": [
        {
          "internalType": "string",
          "name": "_hash",
          "type": "string"
        },
        {
          "internalType": "string",
          "name": "_description",
          "type": "string"
        }
      ],
      "name": "uploadImage",
      "outputs": [],
      "stateMutability": "payable",
      "type": "function",
      "payable": true
    },
    {
      "inputs": [
        {
          "internalType": "uint256",
          "name": "_id",
          "type": "uint256"
        }
      ],
      "name": "tipImage",
      "outputs": [],
      "stateMutability": "payable",
      "type": "function",
      "payable": true
    }
  ],
  "bytecode": "0x60c06040526009608081905268496e7374616772616d60b81b60a090815261002a916000919061004f565b5034801561003757600080fd5b50600180546001600160a01b03191633179055610122565b82805461005b906100e8565b90600052602060002090601f01602090048101928261007d57600085556100c3565b82601f1061009657805160ff19168380011785556100c3565b828001600101855582156100c3579182015b828111156100c35782518255916020019190600101906100a8565b506100cf9291506100d3565b5090565b5b808211156100cf57600081556001016100d4565b600181811c908216806100fc57607f821691505b60208210810361011c57634e487b7160e01b600052602260045260246000fd5b50919050565b610adc806101316000396000f3fe6080604052600436106100555760003560e01c806306fdde031461005a578063092134fe14610085578063848564821461009a5780638da5cb5b146100cb57806392053b6314610103578063a91b831414610127575b600080fd5b34801561006657600080fd5b5061006f61013a565b60405161007c91906108be565b60405180910390f35b6100986100933660046108d8565b6101c8565b005b3480156100a657600080fd5b506100ba6100b53660046108d8565b6104a4565b60405161007c9594939291906108f1565b3480156100d757600080fd5b506001546100eb906001600160a01b031681565b6040516001600160a01b03909116815260200161007c565b34801561010f57600080fd5b5061011960025481565b60405190815260200161007c565b6100986101353660046109e2565b6105ed565b6000805461014790610a46565b80601f016020809104026020016040519081016040528092919081815260200182805461017390610a46565b80156101c05780601f10610195576101008083540402835291602001916101c0565b820191906000526020600020905b8154815290600101906020018083116101a357829003601f168201915b505050505081565b6000811180156101da57506002548111155b61022b5760405162461bcd60e51b815260206004820152601860248201527f73686f756c642068617665206120636f7272656374206964000000000000000060448201526064015b60405180910390fd5b6000600360008381526020019081526020016000206040518060a00160405290816000820154815260200160018201805461026590610a46565b80601f016020809104026020016040519081016040528092919081815260200182805461029190610a46565b80156102de5780601f106102b3576101008083540402835291602001916102de565b820191906000526020600020905b8154815290600101906020018083116102c157829003601f168201915b505050505081526020016002820180546102f790610a46565b80601f016020809104026020016040519081016040528092919081815260200182805461032390610a46565b80156103705780601f1061034557610100808354040283529160200191610370565b820191906000526020600020905b81548152906001019060200180831161035357829003601f168201915b5050509183525050600382015460208201526004909101546001600160a01b039081166040928301526080830151915192935016903480156108fc02916000818181858888f193505050501580156103cc573d6000803e3d6000fd5b5034816060018181516103df9190610a80565b90525060008281526003602090815260409091208251815581830151805184936104109260018501929101906107d8565b506040820151805161042c9160028401916020909101906107d8565b506060828101516003830155608090920151600490910180546001600160a01b0319166001600160a01b039092169190911790556040805184815234602082015233918101919091527fd0a106b4cb197b1b789615fde35e9ae7b28068320611bc7ebdee8e54eee1f983910160405180910390a15050565b600360205260009081526040902080546001820180549192916104c690610a46565b80601f01602080910402602001604051908101604052809291908181526020018280546104f290610a46565b801561053f5780601f106105145761010080835404028352916020019161053f565b820191906000526020600020905b81548152906001019060200180831161052257829003601f168201915b50505050509080600201805461055490610a46565b80601f016020809104026020016040519081016040528092919081815260200182805461058090610a46565b80156105cd5780601f106105a2576101008083540402835291602001916105cd565b820191906000526020600020905b8154815290600101906020018083116105b057829003601f168201915b5050505060038301546004909301549192916001600160a01b0316905085565b60038251116106375760405162461bcd60e51b81526020600482015260166024820152751cda1bdd5b19081a185d994818481a185cda081cd95d60521b6044820152606401610222565b60038151116106885760405162461bcd60e51b815260206004820152601d60248201527f73686f756c6420686176652061206465736372697074696f6e207365740000006044820152606401610222565b336106d55760405162461bcd60e51b815260206004820152601b60248201527f73686f756c64206861766520612076616c6964206164647265737300000000006044820152606401610222565b6001600260008282546106e89190610a80565b90915550506040805160a08101825260025480825260208083018681528385018690523460608501523360808501526000928352600382529390912082518155925180519293849390926107439260018501929101906107d8565b506040820151805161075f9160028401916020909101906107d8565b5060608201516003820155608090910151600490910180546001600160a01b0319166001600160a01b039092169190911790556002546040517f4b0f8efc6726d9aa586c73ace5ff297994c30ee657e4def06e940316db97ef91916107cb9186908690349033906108f1565b60405180910390a1505050565b8280546107e490610a46565b90600052602060002090601f016020900481019282610806576000855561084c565b82601f1061081f57805160ff191683800117855561084c565b8280016001018555821561084c579182015b8281111561084c578251825591602001919060010190610831565b5061085892915061085c565b5090565b5b80821115610858576000815560010161085d565b6000815180845260005b818110156108975760208185018101518683018201520161087b565b818111156108a9576000602083870101525b50601f01601f19169290920160200192915050565b6020815260006108d16020830184610871565b9392505050565b6000602082840312156108ea57600080fd5b5035919050565b85815260a06020820152600061090a60a0830187610871565b828103604084015261091c8187610871565b606084019590955250506001600160a01b03919091166080909101529392505050565b634e487b7160e01b600052604160045260246000fd5b600082601f83011261096657600080fd5b813567ffffffffffffffff808211156109815761098161093f565b604051601f8301601f19908116603f011681019082821181831017156109a9576109a961093f565b816040528381528660208588010111156109c257600080fd5b836020870160208301376000602085830101528094505050505092915050565b600080604083850312156109f557600080fd5b823567ffffffffffffffff80821115610a0d57600080fd5b610a1986838701610955565b93506020850135915080821115610a2f57600080fd5b50610a3c85828601610955565b9150509250929050565b600181811c90821680610a5a57607f821691505b602082108103610a7a57634e487b7160e01b600052602260045260246000fd5b50919050565b60008219821115610aa157634e487b7160e01b600052601160045260246000fd5b50019056fea2646970667358221220a2f39c7f22614b4d4384c7cf4de8c208450c5002e21a14b3ece81de21601126964736f6c634300080d0033",
  "immutableReferences": {},
  "source": "// SPDX-License-Identifier: MIT\npragma solidity >=0.4.22 <0.9.0;\n\ncontract Instagram {\n  string public name = \"Instagram\";\n  address public owner;\n  uint public imageCount;\n\n  struct Image {\n    uint id;\n    string hash;\n    string description;\n    uint tipAmount;\n    address payable author;\n  }\n\n  // store images\n  mapping(uint => Image) public images;\n\n  constructor()  {\n    owner = msg.sender;\n  }\n\n  event UploadImage(uint id, string hash, string description, uint tipAmount, address author);\n  event TipImage(uint id, uint tipAmount, address sender);\n\n  function uploadImage(string memory _hash, string memory _description) public payable {\n      require(bytes(_hash).length > 3, 'should have a hash set');\n      require(bytes(_description).length > 3, 'should have a description set');\n      require(msg.sender != address(0x0), \"should have a valid address\");  \n\n      imageCount += 1;\n      Image memory newImage = Image(imageCount, _hash, _description, msg.value, payable(msg.sender));  \n      images[imageCount] = newImage;\n      emit UploadImage(imageCount, _hash, _description, msg.value, msg.sender);\n  }\n\n  function tipImage(uint _id) public payable {\n    require(_id > 0 && _id <= imageCount, 'should have a correct id');\n    // fetch image\n    Image memory image = images[_id];\n    // fetch the author and transfer money\n    image.author.transfer(msg.value);\n    // update tip amount\n    image.tipAmount +=  msg.value;\n    // update image in mapping\n    images[_id]= image;  \n    // emit event\n    emit TipImage(_id, msg.value, msg.sender);\n  }\n}\n",
  "sourcePath": "/Users/danielancuta/Development/blockchain/truffle-react-instagram-app/src/contracts/Instagram.sol",
  "compiler": {
    "name": "solc",
    "version": "0.8.13+commit.abaa5c0e.Emscripten.clang"
  },
  "schemaVersion": "3.4.10",
  "updatedAt": "2022-09-29T12:58:39.528Z",
  "networkType": "ethereum",
  "devdoc": {
    "kind": "dev",
    "methods": {},
    "version": 1
  },
  "userdoc": {
    "kind": "user",
    "methods": {},
    "version": 1
  }
}